{
    "_format": "hh-sol-artifact-1",
    "contractName": "Main",
    "sourceName": "contracts/Main.sol",
    "abi": [
        {
            "inputs": [
                {
                    "internalType": "string",
                    "name": "userId",
                    "type": "string"
                },
                {
                    "internalType": "address",
                    "name": "accessor",
                    "type": "address"
                }
            ],
            "name": "addAccessors",
            "outputs": [],
            "stateMutability": "nonpayable",
            "type": "function"
        },
        {
            "inputs": [
                {
                    "internalType": "string",
                    "name": "userId",
                    "type": "string"
                }
            ],
            "name": "approveUser",
            "outputs": [],
            "stateMutability": "nonpayable",
            "type": "function"
        },
        {
            "inputs": [
                {
                    "internalType": "string",
                    "name": "_recordId",
                    "type": "string"
                },
                {
                    "internalType": "address",
                    "name": "_patientId",
                    "type": "address"
                },
                {
                    "internalType": "string",
                    "name": "_doctorId",
                    "type": "string"
                },
                {
                    "internalType": "uint256",
                    "name": "_quantityPrescribed",
                    "type": "uint256"
                },
                {
                    "internalType": "string",
                    "name": "_drugDescription",
                    "type": "string"
                }
            ],
            "name": "createRecord",
            "outputs": [],
            "stateMutability": "nonpayable",
            "type": "function"
        },
        {
            "inputs": [
                {
                    "internalType": "string",
                    "name": "addr",
                    "type": "string"
                },
                {
                    "internalType": "string",
                    "name": "_id",
                    "type": "string"
                },
                {
                    "internalType": "string",
                    "name": "_role",
                    "type": "string"
                },
                {
                    "internalType": "string",
                    "name": "_firstname",
                    "type": "string"
                },
                {
                    "internalType": "string",
                    "name": "_lastname",
                    "type": "string"
                }
            ],
            "name": "createUser",
            "outputs": [],
            "stateMutability": "nonpayable",
            "type": "function"
        },
        {
            "inputs": [],
            "name": "getAccessors",
            "outputs": [
                {
                    "internalType": "address[]",
                    "name": "",
                    "type": "address[]"
                }
            ],
            "stateMutability": "view",
            "type": "function"
        },
        {
            "inputs": [
                {
                    "internalType": "string",
                    "name": "userId",
                    "type": "string"
                }
            ],
            "name": "getAllUsers",
            "outputs": [
                {
                    "internalType": "string",
                    "name": "",
                    "type": "string"
                }
            ],
            "stateMutability": "view",
            "type": "function"
        },
        {
            "inputs": [
                {
                    "internalType": "string",
                    "name": "userId",
                    "type": "string"
                }
            ],
            "name": "getUser",
            "outputs": [
                {
                    "components": [
                        {
                            "internalType": "string",
                            "name": "Id",
                            "type": "string"
                        },
                        {
                            "internalType": "bool",
                            "name": "verified",
                            "type": "bool"
                        },
                        {
                            "internalType": "string",
                            "name": "role",
                            "type": "string"
                        },
                        {
                            "internalType": "string",
                            "name": "firstname",
                            "type": "string"
                        },
                        {
                            "internalType": "string",
                            "name": "lastname",
                            "type": "string"
                        },
                        {
                            "internalType": "address",
                            "name": "useraddress",
                            "type": "address"
                        },
                        {
                            "internalType": "address[]",
                            "name": "accessors",
                            "type": "address[]"
                        }
                    ],
                    "internalType": "struct User",
                    "name": "",
                    "type": "tuple"
                }
            ],
            "stateMutability": "view",
            "type": "function"
        },
        {
            "inputs": [
                {
                    "internalType": "address",
                    "name": "userAddr",
                    "type": "address"
                }
            ],
            "name": "getUserRecords",
            "outputs": [
                {
                    "components": [
                        {
                            "internalType": "address",
                            "name": "owner",
                            "type": "address"
                        },
                        {
                            "internalType": "string",
                            "name": "recordId",
                            "type": "string"
                        },
                        {
                            "internalType": "address",
                            "name": "patientId",
                            "type": "address"
                        },
                        {
                            "internalType": "string",
                            "name": "phamacistId",
                            "type": "string"
                        },
                        {
                            "internalType": "string",
                            "name": "doctorId",
                            "type": "string"
                        },
                        {
                            "internalType": "uint256",
                            "name": "quantityPrescribed",
                            "type": "uint256"
                        },
                        {
                            "internalType": "string",
                            "name": "drugDescription",
                            "type": "string"
                        },
                        {
                            "internalType": "uint256",
                            "name": "prescibedDate",
                            "type": "uint256"
                        },
                        {
                            "internalType": "uint256",
                            "name": "collectionDate",
                            "type": "uint256"
                        }
                    ],
                    "internalType": "struct Prescription[]",
                    "name": "",
                    "type": "tuple[]"
                }
            ],
            "stateMutability": "view",
            "type": "function"
        },
        {
            "inputs": [
                {
                    "internalType": "address[]",
                    "name": "arr",
                    "type": "address[]"
                },
                {
                    "internalType": "address",
                    "name": "searchFor",
                    "type": "address"
                }
            ],
            "name": "indexOf",
            "outputs": [
                {
                    "internalType": "uint256",
                    "name": "",
                    "type": "uint256"
                }
            ],
            "stateMutability": "pure",
            "type": "function"
        },
        {
            "inputs": [
                {
                    "internalType": "string",
                    "name": "userId",
                    "type": "string"
                }
            ],
            "name": "removeUser",
            "outputs": [],
            "stateMutability": "nonpayable",
            "type": "function"
        },
        {
            "inputs": [
                {
                    "internalType": "string",
                    "name": "",
                    "type": "string"
                }
            ],
            "name": "userIdMappings",
            "outputs": [
                {
                    "internalType": "string",
                    "name": "Id",
                    "type": "string"
                },
                {
                    "internalType": "bool",
                    "name": "verified",
                    "type": "bool"
                },
                {
                    "internalType": "string",
                    "name": "role",
                    "type": "string"
                },
                {
                    "internalType": "string",
                    "name": "firstname",
                    "type": "string"
                },
                {
                    "internalType": "string",
                    "name": "lastname",
                    "type": "string"
                },
                {
                    "internalType": "address",
                    "name": "useraddress",
                    "type": "address"
                }
            ],
            "stateMutability": "view",
            "type": "function"
        }
    ],
    "bytecode": "0x608060405234801561001057600080fd5b50612952806100206000396000f3fe608060405234801561001057600080fd5b50600436106100a95760003560e01c80635f4f1d35116100715780635f4f1d351461017d578063600cee78146101ad57806365c06f70146101c95780639fce5c8e146101e5578063e6495d3a14610215578063f1a1161714610231576100a9565b806306b43254146100ae5780631403a131146100ca5780632ccbe303146100e857806331feb6711461011d57806351096b021461014d575b600080fd5b6100c860048036038101906100c39190611e4c565b61024d565b005b6100d2610373565b6040516100df9190612474565b60405180910390f35b61010260048036038101906100fd9190611e0b565b61043e565b604051610114969594939291906124da565b60405180910390f35b61013760048036038101906101329190611e0b565b6106dd565b6040516101449190612577565b60405180910390f35b61016760048036038101906101629190611d8e565b610a5c565b6040516101749190612496565b60405180910390f35b61019760048036038101906101929190611e0b565b61128c565b6040516101a491906124b8565b60405180910390f35b6101c760048036038101906101c29190611e0b565b61133f565b005b6101e360048036038101906101de9190611f5f565b6113ee565b005b6101ff60048036038101906101fa9190611db7565b6115dc565b60405161020c9190612599565b60405180910390f35b61022f600480360381019061022a9190611ea0565b611689565b005b61024b60048036038101906102469190611e0b565b6118cf565b005b60018260405161025d919061245d565b9081526020016040518091039020600601819080600181540180825580915050600190039060005260206000200160009091909190916101000a81548173ffffffffffffffffffffffffffffffffffffffff021916908373ffffffffffffffffffffffffffffffffffffffff160217905550600360003373ffffffffffffffffffffffffffffffffffffffff1673ffffffffffffffffffffffffffffffffffffffff168152602001908152602001600020819080600181540180825580915050600190039060005260206000200160009091909190916101000a81548173ffffffffffffffffffffffffffffffffffffffff021916908373ffffffffffffffffffffffffffffffffffffffff1602179055505050565b6060600360003373ffffffffffffffffffffffffffffffffffffffff1673ffffffffffffffffffffffffffffffffffffffff16815260200190815260200160002080548060200260200160405190810160405280929190818152602001828054801561043457602002820191906000526020600020905b8160009054906101000a900473ffffffffffffffffffffffffffffffffffffffff1673ffffffffffffffffffffffffffffffffffffffff16815260200190600101908083116103ea575b5050505050905090565b6001818051602081018201805184825260208301602085012081835280955050505050506000915090508060000180546104779061277b565b80601f01602080910402602001604051908101604052809291908181526020018280546104a39061277b565b80156104f05780601f106104c5576101008083540402835291602001916104f0565b820191906000526020600020905b8154815290600101906020018083116104d357829003601f168201915b5050505050908060010160009054906101000a900460ff16908060020180546105189061277b565b80601f01602080910402602001604051908101604052809291908181526020018280546105449061277b565b80156105915780601f1061056657610100808354040283529160200191610591565b820191906000526020600020905b81548152906001019060200180831161057457829003601f168201915b5050505050908060030180546105a69061277b565b80601f01602080910402602001604051908101604052809291908181526020018280546105d29061277b565b801561061f5780601f106105f45761010080835404028352916020019161061f565b820191906000526020600020905b81548152906001019060200180831161060257829003601f168201915b5050505050908060040180546106349061277b565b80601f01602080910402602001604051908101604052809291908181526020018280546106609061277b565b80156106ad5780601f10610682576101008083540402835291602001916106ad565b820191906000526020600020905b81548152906001019060200180831161069057829003601f168201915b5050505050908060050160009054906101000a900473ffffffffffffffffffffffffffffffffffffffff16905086565b6106e5611a0b565b6001826040516106f5919061245d565b90815260200160405180910390206040518060e001604052908160008201805461071e9061277b565b80601f016020809104026020016040519081016040528092919081815260200182805461074a9061277b565b80156107975780601f1061076c57610100808354040283529160200191610797565b820191906000526020600020905b81548152906001019060200180831161077a57829003601f168201915b505050505081526020016001820160009054906101000a900460ff161515151581526020016002820180546107cb9061277b565b80601f01602080910402602001604051908101604052809291908181526020018280546107f79061277b565b80156108445780601f1061081957610100808354040283529160200191610844565b820191906000526020600020905b81548152906001019060200180831161082757829003601f168201915b5050505050815260200160038201805461085d9061277b565b80601f01602080910402602001604051908101604052809291908181526020018280546108899061277b565b80156108d65780601f106108ab576101008083540402835291602001916108d6565b820191906000526020600020905b8154815290600101906020018083116108b957829003601f168201915b505050505081526020016004820180546108ef9061277b565b80601f016020809104026020016040519081016040528092919081815260200182805461091b9061277b565b80156109685780601f1061093d57610100808354040283529160200191610968565b820191906000526020600020905b81548152906001019060200180831161094b57829003601f168201915b505050505081526020016005820160009054906101000a900473ffffffffffffffffffffffffffffffffffffffff1673ffffffffffffffffffffffffffffffffffffffff1673ffffffffffffffffffffffffffffffffffffffff16815260200160068201805480602002602001604051908101604052809291908181526020018280548015610a4c57602002820191906000526020600020905b8160009054906101000a900473ffffffffffffffffffffffffffffffffffffffff1673ffffffffffffffffffffffffffffffffffffffff1681526020019060010190808311610a02575b5050505050815250509050919050565b60606000600260003373ffffffffffffffffffffffffffffffffffffffff1673ffffffffffffffffffffffffffffffffffffffff168152602001908152602001600020805480602002602001604051908101604052809291908181526020016000905b82821015610e045783829060005260206000209060090201604051806101200160405290816000820160009054906101000a900473ffffffffffffffffffffffffffffffffffffffff1673ffffffffffffffffffffffffffffffffffffffff1673ffffffffffffffffffffffffffffffffffffffff168152602001600182018054610b499061277b565b80601f0160208091040260200160405190810160405280929190818152602001828054610b759061277b565b8015610bc25780601f10610b9757610100808354040283529160200191610bc2565b820191906000526020600020905b815481529060010190602001808311610ba557829003601f168201915b505050505081526020016002820160009054906101000a900473ffffffffffffffffffffffffffffffffffffffff1673ffffffffffffffffffffffffffffffffffffffff1673ffffffffffffffffffffffffffffffffffffffff168152602001600382018054610c319061277b565b80601f0160208091040260200160405190810160405280929190818152602001828054610c5d9061277b565b8015610caa5780601f10610c7f57610100808354040283529160200191610caa565b820191906000526020600020905b815481529060010190602001808311610c8d57829003601f168201915b50505050508152602001600482018054610cc39061277b565b80601f0160208091040260200160405190810160405280929190818152602001828054610cef9061277b565b8015610d3c5780601f10610d1157610100808354040283529160200191610d3c565b820191906000526020600020905b815481529060010190602001808311610d1f57829003601f168201915b5050505050815260200160058201548152602001600682018054610d5f9061277b565b80601f0160208091040260200160405190810160405280929190818152602001828054610d8b9061277b565b8015610dd85780601f10610dad57610100808354040283529160200191610dd8565b820191906000526020600020905b815481529060010190602001808311610dbb57829003601f168201915b505050505081526020016007820154815260200160088201548152505081526020019060010190610abf565b50505050905060005b8151811015610edb573373ffffffffffffffffffffffffffffffffffffffff16828281518110610e66577f4e487b7100000000000000000000000000000000000000000000000000000000600052603260045260246000fd5b60200260200101516000015173ffffffffffffffffffffffffffffffffffffffff1614610ec8576040517f08c379a0000000000000000000000000000000000000000000000000000000008152600401610ebf90612557565b60405180910390fd5b8080610ed3906127de565b915050610e0d565b50600260008473ffffffffffffffffffffffffffffffffffffffff1673ffffffffffffffffffffffffffffffffffffffff168152602001908152602001600020805480602002602001604051908101604052809291908181526020016000905b828210156112805783829060005260206000209060090201604051806101200160405290816000820160009054906101000a900473ffffffffffffffffffffffffffffffffffffffff1673ffffffffffffffffffffffffffffffffffffffff1673ffffffffffffffffffffffffffffffffffffffff168152602001600182018054610fc59061277b565b80601f0160208091040260200160405190810160405280929190818152602001828054610ff19061277b565b801561103e5780601f106110135761010080835404028352916020019161103e565b820191906000526020600020905b81548152906001019060200180831161102157829003601f168201915b505050505081526020016002820160009054906101000a900473ffffffffffffffffffffffffffffffffffffffff1673ffffffffffffffffffffffffffffffffffffffff1673ffffffffffffffffffffffffffffffffffffffff1681526020016003820180546110ad9061277b565b80601f01602080910402602001604051908101604052809291908181526020018280546110d99061277b565b80156111265780601f106110fb57610100808354040283529160200191611126565b820191906000526020600020905b81548152906001019060200180831161110957829003601f168201915b5050505050815260200160048201805461113f9061277b565b80601f016020809104026020016040519081016040528092919081815260200182805461116b9061277b565b80156111b85780601f1061118d576101008083540402835291602001916111b8565b820191906000526020600020905b81548152906001019060200180831161119b57829003601f168201915b50505050508152602001600582015481526020016006820180546111db9061277b565b80601f01602080910402602001604051908101604052809291908181526020018280546112079061277b565b80156112545780601f1061122957610100808354040283529160200191611254565b820191906000526020600020905b81548152906001019060200180831161123757829003601f168201915b505050505081526020016007820154815260200160088201548152505081526020019060010190610f3b565b50505050915050919050565b606060018260405161129e919061245d565b908152602001604051809103902060030180546112ba9061277b565b80601f01602080910402602001604051908101604052809291908181526020018280546112e69061277b565b80156113335780601f1061130857610100808354040283529160200191611333565b820191906000526020600020905b81548152906001019060200180831161131657829003601f168201915b50505050509050919050565b60018160405161134f919061245d565b90815260200160405180910390206000808201600061136e9190611a60565b6001820160006101000a81549060ff02191690556002820160006113929190611a60565b6003820160006113a29190611a60565b6004820160006113b29190611a60565b6005820160006101000a81549073ffffffffffffffffffffffffffffffffffffffff02191690556006820160006113e99190611aa0565b505050565b6113f6611a0b565b8481600001819052508381604001819052508281606001819052508181608001819052508060018760405161142b919061245d565b90815260200160405180910390206000820151816000019080519060200190611455929190611ac1565b5060208201518160010160006101000a81548160ff0219169083151502179055506040820151816002019080519060200190611492929190611ac1565b5060608201518160030190805190602001906114af929190611ac1565b5060808201518160040190805190602001906114cc929190611ac1565b5060a08201518160050160006101000a81548173ffffffffffffffffffffffffffffffffffffffff021916908373ffffffffffffffffffffffffffffffffffffffff16021790555060c0820151816006019080519060200190611530929190611b47565b50905050600360003373ffffffffffffffffffffffffffffffffffffffff1673ffffffffffffffffffffffffffffffffffffffff168152602001908152602001600020339080600181540180825580915050600190039060005260206000200160009091909190916101000a81548173ffffffffffffffffffffffffffffffffffffffff021916908373ffffffffffffffffffffffffffffffffffffffff160217905550505050505050565b600080600090505b835181101561167d578273ffffffffffffffffffffffffffffffffffffffff1684828151811061163d577f4e487b7100000000000000000000000000000000000000000000000000000000600052603260045260246000fd5b602002602001015173ffffffffffffffffffffffffffffffffffffffff16141561166a5780915050611683565b8080611675906127de565b9150506115e4565b50600090505b92915050565b611691611bd1565b84816000019073ffffffffffffffffffffffffffffffffffffffff16908173ffffffffffffffffffffffffffffffffffffffff168152505085816020018190525084816040019073ffffffffffffffffffffffffffffffffffffffff16908173ffffffffffffffffffffffffffffffffffffffff1681525050838160800181905250818160c00181905250828160a0018181525050428160e00181815250504281610100018181525050600260008673ffffffffffffffffffffffffffffffffffffffff1673ffffffffffffffffffffffffffffffffffffffff16815260200190815260200160002081908060018154018082558091505060019003906000526020600020906009020160009091909190915060008201518160000160006101000a81548173ffffffffffffffffffffffffffffffffffffffff021916908373ffffffffffffffffffffffffffffffffffffffff1602179055506020820151816001019080519060200190611807929190611ac1565b5060408201518160020160006101000a81548173ffffffffffffffffffffffffffffffffffffffff021916908373ffffffffffffffffffffffffffffffffffffffff160217905550606082015181600301908051906020019061186b929190611ac1565b506080820151816004019080519060200190611888929190611ac1565b5060a0820151816005015560c08201518160060190805190602001906118af929190611ac1565b5060e0820151816007015561010082015181600801555050505050505050565b600180826040516118e0919061245d565b908152602001604051809103902060010160006101000a81548160ff0219169083151502179055506119466040518060400160405280601a81526020017f66696e6973686564206368616e67696e67207468652075736572000000000000815250611949565b50565b6119df8160405160240161195d91906124b8565b6040516020818303038152906040527f41304fac000000000000000000000000000000000000000000000000000000007bffffffffffffffffffffffffffffffffffffffffffffffffffffffff19166020820180517bffffffffffffffffffffffffffffffffffffffffffffffffffffffff83818316178352505050506119e2565b50565b60008151905060006a636f6e736f6c652e6c6f679050602083016000808483855afa5050505050565b6040518060e0016040528060608152602001600015158152602001606081526020016060815260200160608152602001600073ffffffffffffffffffffffffffffffffffffffff168152602001606081525090565b508054611a6c9061277b565b6000825580601f10611a7e5750611a9d565b601f016020900490600052602060002090810190611a9c9190611c49565b5b50565b5080546000825590600052602060002090810190611abe9190611c49565b50565b828054611acd9061277b565b90600052602060002090601f016020900481019282611aef5760008555611b36565b82601f10611b0857805160ff1916838001178555611b36565b82800160010185558215611b36579182015b82811115611b35578251825591602001919060010190611b1a565b5b509050611b439190611c49565b5090565b828054828255906000526020600020908101928215611bc0579160200282015b82811115611bbf5782518260006101000a81548173ffffffffffffffffffffffffffffffffffffffff021916908373ffffffffffffffffffffffffffffffffffffffff16021790555091602001919060010190611b67565b5b509050611bcd9190611c49565b5090565b604051806101200160405280600073ffffffffffffffffffffffffffffffffffffffff16815260200160608152602001600073ffffffffffffffffffffffffffffffffffffffff1681526020016060815260200160608152602001600081526020016060815260200160008152602001600081525090565b5b80821115611c62576000816000905550600101611c4a565b5090565b6000611c79611c74846125d9565b6125b4565b90508083825260208201905082856020860282011115611c9857600080fd5b60005b85811015611cc85781611cae8882611d10565b845260208401935060208301925050600181019050611c9b565b5050509392505050565b6000611ce5611ce084612605565b6125b4565b905082815260208101848484011115611cfd57600080fd5b611d08848285612739565b509392505050565b600081359050611d1f816128ee565b92915050565b600082601f830112611d3657600080fd5b8135611d46848260208601611c66565b91505092915050565b600082601f830112611d6057600080fd5b8135611d70848260208601611cd2565b91505092915050565b600081359050611d8881612905565b92915050565b600060208284031215611da057600080fd5b6000611dae84828501611d10565b91505092915050565b60008060408385031215611dca57600080fd5b600083013567ffffffffffffffff811115611de457600080fd5b611df085828601611d25565b9250506020611e0185828601611d10565b9150509250929050565b600060208284031215611e1d57600080fd5b600082013567ffffffffffffffff811115611e3757600080fd5b611e4384828501611d4f565b91505092915050565b60008060408385031215611e5f57600080fd5b600083013567ffffffffffffffff811115611e7957600080fd5b611e8585828601611d4f565b9250506020611e9685828601611d10565b9150509250929050565b600080600080600060a08688031215611eb857600080fd5b600086013567ffffffffffffffff811115611ed257600080fd5b611ede88828901611d4f565b9550506020611eef88828901611d10565b945050604086013567ffffffffffffffff811115611f0c57600080fd5b611f1888828901611d4f565b9350506060611f2988828901611d79565b925050608086013567ffffffffffffffff811115611f4657600080fd5b611f5288828901611d4f565b9150509295509295909350565b600080600080600060a08688031215611f7757600080fd5b600086013567ffffffffffffffff811115611f9157600080fd5b611f9d88828901611d4f565b955050602086013567ffffffffffffffff811115611fba57600080fd5b611fc688828901611d4f565b945050604086013567ffffffffffffffff811115611fe357600080fd5b611fef88828901611d4f565b935050606086013567ffffffffffffffff81111561200c57600080fd5b61201888828901611d4f565b925050608086013567ffffffffffffffff81111561203557600080fd5b61204188828901611d4f565b9150509295509295909350565b600061205a838361207a565b60208301905092915050565b600061207283836122ad565b905092915050565b612083816126f1565b82525050565b612092816126f1565b82525050565b60006120a382612656565b6120ad8185612691565b93506120b883612636565b8060005b838110156120e95781516120d0888261204e565b97506120db83612677565b9250506001810190506120bc565b5085935050505092915050565b600061210182612656565b61210b81856126a2565b935061211683612636565b8060005b8381101561214757815161212e888261204e565b975061213983612677565b92505060018101905061211a565b5085935050505092915050565b600061215f82612661565b61216981856126b3565b93508360208202850161217b85612646565b8060005b858110156121b757848403895281516121988582612066565b94506121a383612684565b925060208a0199505060018101905061217f565b50829750879550505050505092915050565b6121d281612703565b82525050565b6121e181612703565b82525050565b60006121f28261266c565b6121fc81856126c4565b935061220c818560208601612748565b612215816128b4565b840191505092915050565b600061222b8261266c565b61223581856126d5565b9350612245818560208601612748565b61224e816128b4565b840191505092915050565b60006122648261266c565b61226e81856126e6565b935061227e818560208601612748565b80840191505092915050565b60006122976016836126d5565b91506122a2826128c5565b602082019050919050565b6000610120830160008301516122c6600086018261207a565b50602083015184820360208601526122de82826121e7565b91505060408301516122f3604086018261207a565b506060830151848203606086015261230b82826121e7565b9150506080830151848203608086015261232582826121e7565b91505060a083015161233a60a086018261243f565b5060c083015184820360c086015261235282826121e7565b91505060e083015161236760e086018261243f565b5061010083015161237c61010086018261243f565b508091505092915050565b600060e08301600083015184820360008601526123a482826121e7565b91505060208301516123b960208601826121c9565b50604083015184820360408601526123d182826121e7565b915050606083015184820360608601526123eb82826121e7565b9150506080830151848203608086015261240582826121e7565b91505060a083015161241a60a086018261207a565b5060c083015184820360c08601526124328282612098565b9150508091505092915050565b6124488161272f565b82525050565b6124578161272f565b82525050565b60006124698284612259565b915081905092915050565b6000602082019050818103600083015261248e81846120f6565b905092915050565b600060208201905081810360008301526124b08184612154565b905092915050565b600060208201905081810360008301526124d28184612220565b905092915050565b600060c08201905081810360008301526124f48189612220565b905061250360208301886121d8565b81810360408301526125158187612220565b905081810360608301526125298186612220565b9050818103608083015261253d8185612220565b905061254c60a0830184612089565b979650505050505050565b600060208201905081810360008301526125708161228a565b9050919050565b600060208201905081810360008301526125918184612387565b905092915050565b60006020820190506125ae600083018461244e565b92915050565b60006125be6125cf565b90506125ca82826127ad565b919050565b6000604051905090565b600067ffffffffffffffff8211156125f4576125f3612885565b5b602082029050602081019050919050565b600067ffffffffffffffff8211156126205761261f612885565b5b612629826128b4565b9050602081019050919050565b6000819050602082019050919050565b6000819050602082019050919050565b600081519050919050565b600081519050919050565b600081519050919050565b6000602082019050919050565b6000602082019050919050565b600082825260208201905092915050565b600082825260208201905092915050565b600082825260208201905092915050565b600082825260208201905092915050565b600082825260208201905092915050565b600081905092915050565b60006126fc8261270f565b9050919050565b60008115159050919050565b600073ffffffffffffffffffffffffffffffffffffffff82169050919050565b6000819050919050565b82818337600083830152505050565b60005b8381101561276657808201518184015260208101905061274b565b83811115612775576000848401525b50505050565b6000600282049050600182168061279357607f821691505b602082108114156127a7576127a6612856565b5b50919050565b6127b6826128b4565b810181811067ffffffffffffffff821117156127d5576127d4612885565b5b80604052505050565b60006127e98261272f565b91507fffffffffffffffffffffffffffffffffffffffffffffffffffffffffffffffff82141561281c5761281b612827565b5b600182019050919050565b7f4e487b7100000000000000000000000000000000000000000000000000000000600052601160045260246000fd5b7f4e487b7100000000000000000000000000000000000000000000000000000000600052602260045260246000fd5b7f4e487b7100000000000000000000000000000000000000000000000000000000600052604160045260246000fd5b6000601f19601f8301169050919050565b7f596f757220617265206e6f7420746865206f776e657200000000000000000000600082015250565b6128f7816126f1565b811461290257600080fd5b50565b61290e8161272f565b811461291957600080fd5b5056fea2646970667358221220c18ebd68cd20d893784717aeedbab8639652d4928801fdeaffba7c757b08319864736f6c63430008040033",
    "linkReferences": {},
    "deployedLinkReferences": {}
}