{
  "_format": "hh-sol-artifact-1",
  "contractName": "Main",
  "sourceName": "contracts/Main.sol",
  "abi": [
    {
      "inputs": [
        {
          "internalType": "string",
          "name": "userId",
          "type": "string"
        },
        {
          "internalType": "string",
          "name": "accessor",
          "type": "string"
        }
      ],
      "name": "addAccessors",
      "outputs": [],
      "stateMutability": "nonpayable",
      "type": "function"
    },
    {
      "inputs": [
        {
          "internalType": "string",
          "name": "userId",
          "type": "string"
        }
      ],
      "name": "approveUser",
      "outputs": [],
      "stateMutability": "nonpayable",
      "type": "function"
    },
    {
      "inputs": [
        {
          "internalType": "string",
          "name": "_recordId",
          "type": "string"
        },
        {
          "internalType": "string",
          "name": "_patientId",
          "type": "string"
        },
        {
          "internalType": "string",
          "name": "_doctorId",
          "type": "string"
        },
        {
          "internalType": "uint256",
          "name": "_quantityPrescribed",
          "type": "uint256"
        },
        {
          "internalType": "string",
          "name": "_drugDescription",
          "type": "string"
        }
      ],
      "name": "createRecord",
      "outputs": [],
      "stateMutability": "nonpayable",
      "type": "function"
    },
    {
      "inputs": [
        {
          "internalType": "string",
          "name": "_userId",
          "type": "string"
        },
        {
          "internalType": "string",
          "name": "_role",
          "type": "string"
        },
        {
          "internalType": "string",
          "name": "_firstname",
          "type": "string"
        },
        {
          "internalType": "string",
          "name": "_lastname",
          "type": "string"
        }
      ],
      "name": "createUser",
      "outputs": [],
      "stateMutability": "nonpayable",
      "type": "function"
    },
    {
      "inputs": [
        {
          "internalType": "string",
          "name": "userAddr",
          "type": "string"
        }
      ],
      "name": "getAccessors",
      "outputs": [
        {
          "internalType": "string[]",
          "name": "",
          "type": "string[]"
        }
      ],
      "stateMutability": "view",
      "type": "function"
    },
    {
      "inputs": [],
      "name": "getAllUsers",
      "outputs": [
        {
          "components": [
            {
              "internalType": "string",
              "name": "Id",
              "type": "string"
            },
            {
              "internalType": "bool",
              "name": "verified",
              "type": "bool"
            },
            {
              "internalType": "string",
              "name": "role",
              "type": "string"
            },
            {
              "internalType": "string",
              "name": "firstname",
              "type": "string"
            },
            {
              "internalType": "string",
              "name": "lastname",
              "type": "string"
            },
            {
              "internalType": "string[]",
              "name": "accessors",
              "type": "string[]"
            }
          ],
          "internalType": "struct User[]",
          "name": "",
          "type": "tuple[]"
        }
      ],
      "stateMutability": "view",
      "type": "function"
    },
    {
      "inputs": [
        {
          "internalType": "string",
          "name": "userId",
          "type": "string"
        }
      ],
      "name": "getUser",
      "outputs": [
        {
          "components": [
            {
              "internalType": "string",
              "name": "Id",
              "type": "string"
            },
            {
              "internalType": "bool",
              "name": "verified",
              "type": "bool"
            },
            {
              "internalType": "string",
              "name": "role",
              "type": "string"
            },
            {
              "internalType": "string",
              "name": "firstname",
              "type": "string"
            },
            {
              "internalType": "string",
              "name": "lastname",
              "type": "string"
            },
            {
              "internalType": "string[]",
              "name": "accessors",
              "type": "string[]"
            }
          ],
          "internalType": "struct User",
          "name": "",
          "type": "tuple"
        }
      ],
      "stateMutability": "view",
      "type": "function"
    },
    {
      "inputs": [
        {
          "internalType": "string",
          "name": "userId",
          "type": "string"
        }
      ],
      "name": "getUserAccessors",
      "outputs": [
        {
          "internalType": "string[]",
          "name": "",
          "type": "string[]"
        }
      ],
      "stateMutability": "view",
      "type": "function"
    },
    {
      "inputs": [
        {
          "internalType": "string",
          "name": "userAddr",
          "type": "string"
        },
        {
          "internalType": "string",
          "name": "requestor",
          "type": "string"
        }
      ],
      "name": "getUserRecords",
      "outputs": [
        {
          "components": [
            {
              "internalType": "string",
              "name": "owner",
              "type": "string"
            },
            {
              "internalType": "string",
              "name": "recordId",
              "type": "string"
            },
            {
              "internalType": "string",
              "name": "patientId",
              "type": "string"
            },
            {
              "internalType": "string",
              "name": "phamacistId",
              "type": "string"
            },
            {
              "internalType": "string",
              "name": "doctorId",
              "type": "string"
            },
            {
              "internalType": "uint256",
              "name": "quantityPrescribed",
              "type": "uint256"
            },
            {
              "internalType": "string",
              "name": "drugDescription",
              "type": "string"
            },
            {
              "internalType": "uint256",
              "name": "prescibedDate",
              "type": "uint256"
            },
            {
              "internalType": "uint256",
              "name": "collectionDate",
              "type": "uint256"
            }
          ],
          "internalType": "struct Prescription[]",
          "name": "",
          "type": "tuple[]"
        }
      ],
      "stateMutability": "view",
      "type": "function"
    },
    {
      "inputs": [
        {
          "internalType": "string[]",
          "name": "arr",
          "type": "string[]"
        },
        {
          "internalType": "string",
          "name": "searchFor",
          "type": "string"
        }
      ],
      "name": "indexOf",
      "outputs": [
        {
          "internalType": "uint256",
          "name": "",
          "type": "uint256"
        }
      ],
      "stateMutability": "pure",
      "type": "function"
    },
    {
      "inputs": [
        {
          "internalType": "string",
          "name": "userId",
          "type": "string"
        },
        {
          "internalType": "string",
          "name": "accessor",
          "type": "string"
        }
      ],
      "name": "removeAccessor",
      "outputs": [],
      "stateMutability": "nonpayable",
      "type": "function"
    },
    {
      "inputs": [
        {
          "internalType": "string",
          "name": "userId",
          "type": "string"
        }
      ],
      "name": "removeUser",
      "outputs": [],
      "stateMutability": "nonpayable",
      "type": "function"
    },
    {
      "inputs": [
        {
          "internalType": "string",
          "name": "",
          "type": "string"
        }
      ],
      "name": "userIdMappings",
      "outputs": [
        {
          "internalType": "string",
          "name": "Id",
          "type": "string"
        },
        {
          "internalType": "bool",
          "name": "verified",
          "type": "bool"
        },
        {
          "internalType": "string",
          "name": "role",
          "type": "string"
        },
        {
          "internalType": "string",
          "name": "firstname",
          "type": "string"
        },
        {
          "internalType": "string",
          "name": "lastname",
          "type": "string"
        }
      ],
      "stateMutability": "view",
      "type": "function"
    }
  ],
  "bytecode": "0x608060405234801561001057600080fd5b50612dd8806100206000396000f3fe608060405234801561001057600080fd5b50600436106100cf5760003560e01c806369d85dce1161008c578063b23374e611610066578063b23374e614610238578063e2842d7914610254578063e806419614610272578063f1a11617146102a2576100cf565b806369d85dce146101d05780636f7fcddb1461020057806385503dd11461021c576100cf565b806304d6faa0146100d457806306ea2dfb146100f05780631b4e5b94146101205780632ccbe3031461015057806331feb67114610184578063600cee78146101b4575b600080fd5b6100ee60048036038101906100e991906121cd565b6102be565b005b61010a6004803603810190610105919061205d565b610431565b6040516101179190612895565b60405180910390f35b61013a60048036038101906101359190611ff1565b610528565b60405161014791906129e9565b60405180910390f35b61016a6004803603810190610165919061205d565b6105b7565b60405161017b959493929190612938565b60405180910390f35b61019e6004803603810190610199919061205d565b610830565b6040516101ab91906129c7565b60405180910390f35b6101ce60048036038101906101c9919061205d565b610ba4565b005b6101ea60048036038101906101e5919061209e565b610c2c565b6040516101f791906128b7565b60405180910390f35b61021a6004803603810190610215919061210a565b611284565b005b6102366004803603810190610231919061209e565b6114c1565b005b610252600480360381019061024d919061209e565b61151d565b005b61025c611651565b60405161026991906128d9565b60405180910390f35b61028c6004803603810190610287919061205d565b6119ec565b6040516102999190612895565b60405180910390f35b6102bc60048036038101906102b7919061205d565b611ae3565b005b6102c6611cb8565b848160000181905250858160200181905250848160400181905250838160800181905250818160c00181905250828160a0018181525050428160e00181815250504281610100018181525050600285604051610322919061287e565b90815260200160405180910390208190806001815401808255809150506001900390600052602060002090600902016000909190919091506000820151816000019080519060200190610376929190611d04565b506020820151816001019080519060200190610393929190611d04565b5060408201518160020190805190602001906103b0929190611d04565b5060608201518160030190805190602001906103cd929190611d04565b5060808201518160040190805190602001906103ea929190611d04565b5060a0820151816005015560c0820151816006019080519060200190610411929190611d04565b5060e0820151816007015561010082015181600801555050505050505050565b6060600382604051610443919061287e565b9081526020016040518091039020805480602002602001604051908101604052809291908181526020016000905b8282101561051d57838290600052602060002001805461049090612bf2565b80601f01602080910402602001604051908101604052809291908181526020018280546104bc90612bf2565b80156105095780601f106104de57610100808354040283529160200191610509565b820191906000526020600020905b8154815290600101906020018083116104ec57829003601f168201915b505050505081526020019060010190610471565b505050509050919050565b600080600090505b83518110156105ab57828051906020012084828151811061057a577f4e487b7100000000000000000000000000000000000000000000000000000000600052603260045260246000fd5b602002602001015180519060200120141561059857809150506105b1565b80806105a390612c55565b915050610530565b50600090505b92915050565b6001818051602081018201805184825260208301602085012081835280955050505050506000915090508060000180546105f090612bf2565b80601f016020809104026020016040519081016040528092919081815260200182805461061c90612bf2565b80156106695780601f1061063e57610100808354040283529160200191610669565b820191906000526020600020905b81548152906001019060200180831161064c57829003601f168201915b5050505050908060010160009054906101000a900460ff169080600201805461069190612bf2565b80601f01602080910402602001604051908101604052809291908181526020018280546106bd90612bf2565b801561070a5780601f106106df5761010080835404028352916020019161070a565b820191906000526020600020905b8154815290600101906020018083116106ed57829003601f168201915b50505050509080600301805461071f90612bf2565b80601f016020809104026020016040519081016040528092919081815260200182805461074b90612bf2565b80156107985780601f1061076d57610100808354040283529160200191610798565b820191906000526020600020905b81548152906001019060200180831161077b57829003601f168201915b5050505050908060040180546107ad90612bf2565b80601f01602080910402602001604051908101604052809291908181526020018280546107d990612bf2565b80156108265780601f106107fb57610100808354040283529160200191610826565b820191906000526020600020905b81548152906001019060200180831161080957829003601f168201915b5050505050905085565b610838611d8a565b600182604051610848919061287e565b90815260200160405180910390206040518060c001604052908160008201805461087190612bf2565b80601f016020809104026020016040519081016040528092919081815260200182805461089d90612bf2565b80156108ea5780601f106108bf576101008083540402835291602001916108ea565b820191906000526020600020905b8154815290600101906020018083116108cd57829003601f168201915b505050505081526020016001820160009054906101000a900460ff1615151515815260200160028201805461091e90612bf2565b80601f016020809104026020016040519081016040528092919081815260200182805461094a90612bf2565b80156109975780601f1061096c57610100808354040283529160200191610997565b820191906000526020600020905b81548152906001019060200180831161097a57829003601f168201915b505050505081526020016003820180546109b090612bf2565b80601f01602080910402602001604051908101604052809291908181526020018280546109dc90612bf2565b8015610a295780601f106109fe57610100808354040283529160200191610a29565b820191906000526020600020905b815481529060010190602001808311610a0c57829003601f168201915b50505050508152602001600482018054610a4290612bf2565b80601f0160208091040260200160405190810160405280929190818152602001828054610a6e90612bf2565b8015610abb5780601f10610a9057610100808354040283529160200191610abb565b820191906000526020600020905b815481529060010190602001808311610a9e57829003601f168201915b5050505050815260200160058201805480602002602001604051908101604052809291908181526020016000905b82821015610b95578382906000526020600020018054610b0890612bf2565b80601f0160208091040260200160405190810160405280929190818152602001828054610b3490612bf2565b8015610b815780601f10610b5657610100808354040283529160200191610b81565b820191906000526020600020905b815481529060010190602001808311610b6457829003601f168201915b505050505081526020019060010190610ae9565b50505050815250509050919050565b600181604051610bb4919061287e565b908152602001604051809103902060008082016000610bd39190611dc2565b6001820160006101000a81549060ff0219169055600282016000610bf79190611dc2565b600382016000610c079190611dc2565b600482016000610c179190611dc2565b600582016000610c279190611e02565b505050565b606082826000600183604051610c42919061287e565b9081526020016040518091039020600501805480602002602001604051908101604052809291908181526020016000905b82821015610d1f578382906000526020600020018054610c9290612bf2565b80601f0160208091040260200160405190810160405280929190818152602001828054610cbe90612bf2565b8015610d0b5780601f10610ce057610100808354040283529160200191610d0b565b820191906000526020600020905b815481529060010190602001808311610cee57829003601f168201915b505050505081526020019060010190610c73565b505050509050610d636040518060400160405280600b81526020017f496e206d6f646966696572000000000000000000000000000000000000000000815250611b5d565b600080600090505b600385604051610d7b919061287e565b908152602001604051809103902080549050811015610e2f578380519060200120600386604051610dac919061287e565b90815260200160405180910390208281548110610df2577f4e487b7100000000000000000000000000000000000000000000000000000000600052603260045260246000fd5b90600052602060002001604051610e099190612867565b60405180910390201415610e1c57600191505b8080610e2790612c55565b915050610d6b565b50610e3981611bf6565b80610e79576040517f08c379a0000000000000000000000000000000000000000000000000000000008152600401610e70906129a7565b60405180910390fd5b600287604051610e89919061287e565b9081526020016040518091039020805480602002602001604051908101604052809291908181526020016000905b82821015611274578382906000526020600020906009020160405180610120016040529081600082018054610eeb90612bf2565b80601f0160208091040260200160405190810160405280929190818152602001828054610f1790612bf2565b8015610f645780601f10610f3957610100808354040283529160200191610f64565b820191906000526020600020905b815481529060010190602001808311610f4757829003601f168201915b50505050508152602001600182018054610f7d90612bf2565b80601f0160208091040260200160405190810160405280929190818152602001828054610fa990612bf2565b8015610ff65780601f10610fcb57610100808354040283529160200191610ff6565b820191906000526020600020905b815481529060010190602001808311610fd957829003601f168201915b5050505050815260200160028201805461100f90612bf2565b80601f016020809104026020016040519081016040528092919081815260200182805461103b90612bf2565b80156110885780601f1061105d57610100808354040283529160200191611088565b820191906000526020600020905b81548152906001019060200180831161106b57829003601f168201915b505050505081526020016003820180546110a190612bf2565b80601f01602080910402602001604051908101604052809291908181526020018280546110cd90612bf2565b801561111a5780601f106110ef5761010080835404028352916020019161111a565b820191906000526020600020905b8154815290600101906020018083116110fd57829003601f168201915b5050505050815260200160048201805461113390612bf2565b80601f016020809104026020016040519081016040528092919081815260200182805461115f90612bf2565b80156111ac5780601f10611181576101008083540402835291602001916111ac565b820191906000526020600020905b81548152906001019060200180831161118f57829003601f168201915b50505050508152602001600582015481526020016006820180546111cf90612bf2565b80601f01602080910402602001604051908101604052809291908181526020018280546111fb90612bf2565b80156112485780601f1061121d57610100808354040283529160200191611248565b820191906000526020600020905b81548152906001019060200180831161122b57829003601f168201915b505050505081526020016007820154815260200160088201548152505081526020019060010190610eb7565b5050505094505050505092915050565b61128c611d8a565b848160000181905250838160400181905250828160600181905250818160800181905250806001866040516112c1919061287e565b908152602001604051809103902060008201518160000190805190602001906112eb929190611d04565b5060208201518160010160006101000a81548160ff0219169083151502179055506040820151816002019080519060200190611328929190611d04565b506060820151816003019080519060200190611345929190611d04565b506080820151816004019080519060200190611362929190611d04565b5060a082015181600501908051906020019061137f929190611e23565b50905050600385604051611393919061287e565b9081526020016040518091039020859080600181540180825580915050600190039060005260206000200160009091909190915090805190602001906113da929190611d04565b5060048190806001815401808255809150506001900390600052602060002090600602016000909190919091506000820151816000019080519060200190611423929190611d04565b5060208201518160010160006101000a81548160ff0219169083151502179055506040820151816002019080519060200190611460929190611d04565b50606082015181600301908051906020019061147d929190611d04565b50608082015181600401908051906020019061149a929190611d04565b5060a08201518160050190805190602001906114b7929190611e23565b5050505050505050565b6003826040516114d1919061287e565b908152602001604051809103902081908060018154018082558091505060019003906000526020600020016000909190919091509080519060200190611518929190611d04565b505050565b60005b600383604051611530919061287e565b90815260200160405180910390208054905081101561164c578180519060200120600384604051611561919061287e565b908152602001604051809103902082815481106115a7577f4e487b7100000000000000000000000000000000000000000000000000000000600052603260045260246000fd5b906000526020600020016040516115be9190612867565b60405180910390201415611639576003836040516115dc919061287e565b90815260200160405180910390208181548110611622577f4e487b7100000000000000000000000000000000000000000000000000000000600052603260045260246000fd5b9060005260206000200160006116389190611dc2565b5b808061164490612c55565b915050611520565b505050565b60606004805480602002602001604051908101604052809291908181526020016000905b828210156119e357838290600052602060002090600602016040518060c00160405290816000820180546116a890612bf2565b80601f01602080910402602001604051908101604052809291908181526020018280546116d490612bf2565b80156117215780601f106116f657610100808354040283529160200191611721565b820191906000526020600020905b81548152906001019060200180831161170457829003601f168201915b505050505081526020016001820160009054906101000a900460ff1615151515815260200160028201805461175590612bf2565b80601f016020809104026020016040519081016040528092919081815260200182805461178190612bf2565b80156117ce5780601f106117a3576101008083540402835291602001916117ce565b820191906000526020600020905b8154815290600101906020018083116117b157829003601f168201915b505050505081526020016003820180546117e790612bf2565b80601f016020809104026020016040519081016040528092919081815260200182805461181390612bf2565b80156118605780601f1061183557610100808354040283529160200191611860565b820191906000526020600020905b81548152906001019060200180831161184357829003601f168201915b5050505050815260200160048201805461187990612bf2565b80601f01602080910402602001604051908101604052809291908181526020018280546118a590612bf2565b80156118f25780601f106118c7576101008083540402835291602001916118f2565b820191906000526020600020905b8154815290600101906020018083116118d557829003601f168201915b5050505050815260200160058201805480602002602001604051908101604052809291908181526020016000905b828210156119cc57838290600052602060002001805461193f90612bf2565b80601f016020809104026020016040519081016040528092919081815260200182805461196b90612bf2565b80156119b85780601f1061198d576101008083540402835291602001916119b8565b820191906000526020600020905b81548152906001019060200180831161199b57829003601f168201915b505050505081526020019060010190611920565b505050508152505081526020019060010190611675565b50505050905090565b60606003826040516119fe919061287e565b9081526020016040518091039020805480602002602001604051908101604052809291908181526020016000905b82821015611ad8578382906000526020600020018054611a4b90612bf2565b80601f0160208091040260200160405190810160405280929190818152602001828054611a7790612bf2565b8015611ac45780601f10611a9957610100808354040283529160200191611ac4565b820191906000526020600020905b815481529060010190602001808311611aa757829003601f168201915b505050505081526020019060010190611a2c565b505050509050919050565b60018082604051611af4919061287e565b908152602001604051809103902060010160006101000a81548160ff021916908315150217905550611b5a6040518060400160405280601a81526020017f66696e6973686564206368616e67696e67207468652075736572000000000000815250611b5d565b50565b611bf381604051602401611b719190612916565b6040516020818303038152906040527f41304fac000000000000000000000000000000000000000000000000000000007bffffffffffffffffffffffffffffffffffffffffffffffffffffffff19166020820180517bffffffffffffffffffffffffffffffffffffffffffffffffffffffff8381831617835250505050611c8f565b50565b611c8c81604051602401611c0a91906128fb565b6040516020818303038152906040527f32458eed000000000000000000000000000000000000000000000000000000007bffffffffffffffffffffffffffffffffffffffffffffffffffffffff19166020820180517bffffffffffffffffffffffffffffffffffffffffffffffffffffffff8381831617835250505050611c8f565b50565b60008151905060006a636f6e736f6c652e6c6f679050602083016000808483855afa5050505050565b6040518061012001604052806060815260200160608152602001606081526020016060815260200160608152602001600081526020016060815260200160008152602001600081525090565b828054611d1090612bf2565b90600052602060002090601f016020900481019282611d325760008555611d79565b82601f10611d4b57805160ff1916838001178555611d79565b82800160010185558215611d79579182015b82811115611d78578251825591602001919060010190611d5d565b5b509050611d869190611e83565b5090565b6040518060c0016040528060608152602001600015158152602001606081526020016060815260200160608152602001606081525090565b508054611dce90612bf2565b6000825580601f10611de05750611dff565b601f016020900490600052602060002090810190611dfe9190611e83565b5b50565b5080546000825590600052602060002090810190611e209190611ea0565b50565b828054828255906000526020600020908101928215611e72579160200282015b82811115611e71578251829080519060200190611e61929190611d04565b5091602001919060010190611e43565b5b509050611e7f9190611ea0565b5090565b5b80821115611e9c576000816000905550600101611e84565b5090565b5b80821115611ec05760008181611eb79190611dc2565b50600101611ea1565b5090565b6000611ed7611ed284612a29565b612a04565b90508083825260208201905082856020860282011115611ef657600080fd5b60005b85811015611f4057813567ffffffffffffffff811115611f1857600080fd5b808601611f258982611fb2565b85526020850194506020840193505050600181019050611ef9565b5050509392505050565b6000611f5d611f5884612a55565b612a04565b905082815260208101848484011115611f7557600080fd5b611f80848285612bb0565b509392505050565b600082601f830112611f9957600080fd5b8135611fa9848260208601611ec4565b91505092915050565b600082601f830112611fc357600080fd5b8135611fd3848260208601611f4a565b91505092915050565b600081359050611feb81612d8b565b92915050565b6000806040838503121561200457600080fd5b600083013567ffffffffffffffff81111561201e57600080fd5b61202a85828601611f88565b925050602083013567ffffffffffffffff81111561204757600080fd5b61205385828601611fb2565b9150509250929050565b60006020828403121561206f57600080fd5b600082013567ffffffffffffffff81111561208957600080fd5b61209584828501611fb2565b91505092915050565b600080604083850312156120b157600080fd5b600083013567ffffffffffffffff8111156120cb57600080fd5b6120d785828601611fb2565b925050602083013567ffffffffffffffff8111156120f457600080fd5b61210085828601611fb2565b9150509250929050565b6000806000806080858703121561212057600080fd5b600085013567ffffffffffffffff81111561213a57600080fd5b61214687828801611fb2565b945050602085013567ffffffffffffffff81111561216357600080fd5b61216f87828801611fb2565b935050604085013567ffffffffffffffff81111561218c57600080fd5b61219887828801611fb2565b925050606085013567ffffffffffffffff8111156121b557600080fd5b6121c187828801611fb2565b91505092959194509250565b600080600080600060a086880312156121e557600080fd5b600086013567ffffffffffffffff8111156121ff57600080fd5b61220b88828901611fb2565b955050602086013567ffffffffffffffff81111561222857600080fd5b61223488828901611fb2565b945050604086013567ffffffffffffffff81111561225157600080fd5b61225d88828901611fb2565b935050606061226e88828901611fdc565b925050608086013567ffffffffffffffff81111561228b57600080fd5b61229788828901611fb2565b9150509295509295909350565b60006122b08383612551565b905092915050565b60006122c48383612617565b905092915050565b60006122d883836126ff565b905092915050565b60006122eb82612acb565b6122f58185612b1e565b93508360208202850161230785612a86565b8060005b85811015612343578484038952815161232485826122a4565b945061232f83612af7565b925060208a0199505060018101905061230b565b50829750879550505050505092915050565b600061236082612acb565b61236a8185612b2f565b93508360208202850161237c85612a86565b8060005b858110156123b8578484038952815161239985826122a4565b94506123a483612af7565b925060208a01995050600181019050612380565b50829750879550505050505092915050565b60006123d582612ad6565b6123df8185612b40565b9350836020820285016123f185612a96565b8060005b8581101561242d578484038952815161240e85826122b8565b945061241983612b04565b925060208a019950506001810190506123f5565b50829750879550505050505092915050565b600061244a82612ae1565b6124548185612b51565b93508360208202850161246685612aa6565b8060005b858110156124a2578484038952815161248385826122cc565b945061248e83612b11565b925060208a0199505060018101905061246a565b50829750879550505050505092915050565b6124bd81612b9a565b82525050565b6124cc81612b9a565b82525050565b600081546124df81612bf2565b6124e98186612b62565b94506001821660008114612504576001811461251557612548565b60ff19831686528186019350612548565b61251e85612ab6565b60005b8381101561254057815481890152600182019150602081019050612521565b838801955050505b50505092915050565b600061255c82612aec565b6125668185612b6d565b9350612576818560208601612bbf565b61257f81612d2b565b840191505092915050565b600061259582612aec565b61259f8185612b7e565b93506125af818560208601612bbf565b6125b881612d2b565b840191505092915050565b60006125ce82612aec565b6125d88185612b8f565b93506125e8818560208601612bbf565b80840191505092915050565b6000612601602683612b7e565b915061260c82612d3c565b604082019050919050565b60006101208301600083015184820360008601526126358282612551565b9150506020830151848203602086015261264f8282612551565b915050604083015184820360408601526126698282612551565b915050606083015184820360608601526126838282612551565b9150506080830151848203608086015261269d8282612551565b91505060a08301516126b260a0860182612849565b5060c083015184820360c08601526126ca8282612551565b91505060e08301516126df60e0860182612849565b506101008301516126f4610100860182612849565b508091505092915050565b600060c083016000830151848203600086015261271c8282612551565b915050602083015161273160208601826124b4565b50604083015184820360408601526127498282612551565b915050606083015184820360608601526127638282612551565b9150506080830151848203608086015261277d8282612551565b91505060a083015184820360a086015261279782826122e0565b9150508091505092915050565b600060c08301600083015184820360008601526127c18282612551565b91505060208301516127d660208601826124b4565b50604083015184820360408601526127ee8282612551565b915050606083015184820360608601526128088282612551565b915050608083015184820360808601526128228282612551565b91505060a083015184820360a086015261283c82826122e0565b9150508091505092915050565b61285281612ba6565b82525050565b61286181612ba6565b82525050565b600061287382846124d2565b915081905092915050565b600061288a82846125c3565b915081905092915050565b600060208201905081810360008301526128af8184612355565b905092915050565b600060208201905081810360008301526128d181846123ca565b905092915050565b600060208201905081810360008301526128f3818461243f565b905092915050565b600060208201905061291060008301846124c3565b92915050565b60006020820190508181036000830152612930818461258a565b905092915050565b600060a0820190508181036000830152612952818861258a565b905061296160208301876124c3565b8181036040830152612973818661258a565b90508181036060830152612987818561258a565b9050818103608083015261299b818461258a565b90509695505050505050565b600060208201905081810360008301526129c0816125f4565b9050919050565b600060208201905081810360008301526129e181846127a4565b905092915050565b60006020820190506129fe6000830184612858565b92915050565b6000612a0e612a1f565b9050612a1a8282612c24565b919050565b6000604051905090565b600067ffffffffffffffff821115612a4457612a43612cfc565b5b602082029050602081019050919050565b600067ffffffffffffffff821115612a7057612a6f612cfc565b5b612a7982612d2b565b9050602081019050919050565b6000819050602082019050919050565b6000819050602082019050919050565b6000819050602082019050919050565b60008190508160005260206000209050919050565b600081519050919050565b600081519050919050565b600081519050919050565b600081519050919050565b6000602082019050919050565b6000602082019050919050565b6000602082019050919050565b600082825260208201905092915050565b600082825260208201905092915050565b600082825260208201905092915050565b600082825260208201905092915050565b600081905092915050565b600082825260208201905092915050565b600082825260208201905092915050565b600081905092915050565b60008115159050919050565b6000819050919050565b82818337600083830152505050565b60005b83811015612bdd578082015181840152602081019050612bc2565b83811115612bec576000848401525b50505050565b60006002820490506001821680612c0a57607f821691505b60208210811415612c1e57612c1d612ccd565b5b50919050565b612c2d82612d2b565b810181811067ffffffffffffffff82111715612c4c57612c4b612cfc565b5b80604052505050565b6000612c6082612ba6565b91507fffffffffffffffffffffffffffffffffffffffffffffffffffffffffffffffff821415612c9357612c92612c9e565b5b600182019050919050565b7f4e487b7100000000000000000000000000000000000000000000000000000000600052601160045260246000fd5b7f4e487b7100000000000000000000000000000000000000000000000000000000600052602260045260246000fd5b7f4e487b7100000000000000000000000000000000000000000000000000000000600052604160045260246000fd5b6000601f19601f8301169050919050565b7f4e6f7420616c6c6f77656420746f20766965772074686973207573657273207260008201527f65636f7264730000000000000000000000000000000000000000000000000000602082015250565b612d9481612ba6565b8114612d9f57600080fd5b5056fea2646970667358221220b7d525396dd032c4495215d5a5750c83222df7f763ee1a10c0fa277aa8562ed264736f6c63430008040033",
  "linkReferences": {},
  "deployedLinkReferences": {}
}