{
  "_format": "hh-sol-artifact-1",
  "contractName": "Main",
  "sourceName": "contracts/Main.sol",
  "abi": [
    {
      "inputs": [
        {
          "internalType": "string",
          "name": "userId",
          "type": "string"
        },
        {
          "internalType": "string",
          "name": "accessor",
          "type": "string"
        }
      ],
      "name": "addAccessors",
      "outputs": [],
      "stateMutability": "nonpayable",
      "type": "function"
    },
    {
      "inputs": [
        {
          "internalType": "string",
          "name": "userId",
          "type": "string"
        }
      ],
      "name": "approveUser",
      "outputs": [],
      "stateMutability": "nonpayable",
      "type": "function"
    },
    {
      "inputs": [
        {
          "internalType": "string",
          "name": "_recordId",
          "type": "string"
        },
        {
          "internalType": "string",
          "name": "_patientId",
          "type": "string"
        },
        {
          "internalType": "string",
          "name": "_doctorId",
          "type": "string"
        },
        {
          "internalType": "uint256",
          "name": "_quantityPrescribed",
          "type": "uint256"
        },
        {
          "internalType": "string",
          "name": "_drugDescription",
          "type": "string"
        }
      ],
      "name": "createRecord",
      "outputs": [],
      "stateMutability": "nonpayable",
      "type": "function"
    },
    {
      "inputs": [
        {
          "internalType": "string",
          "name": "_userId",
          "type": "string"
        },
        {
          "internalType": "string",
          "name": "_role",
          "type": "string"
        },
        {
          "internalType": "string",
          "name": "_email",
          "type": "string"
        },
        {
          "internalType": "string",
          "name": "_firstname",
          "type": "string"
        },
        {
          "internalType": "string",
          "name": "_lastname",
          "type": "string"
        }
      ],
      "name": "createUser",
      "outputs": [],
      "stateMutability": "nonpayable",
      "type": "function"
    },
    {
      "inputs": [
        {
          "internalType": "string",
          "name": "userAddr",
          "type": "string"
        }
      ],
      "name": "getAccessors",
      "outputs": [
        {
          "internalType": "string[]",
          "name": "",
          "type": "string[]"
        }
      ],
      "stateMutability": "view",
      "type": "function"
    },
    {
      "inputs": [],
      "name": "getAllUsers",
      "outputs": [
        {
          "components": [
            {
              "internalType": "string",
              "name": "Id",
              "type": "string"
            },
            {
              "internalType": "bool",
              "name": "verified",
              "type": "bool"
            },
            {
              "internalType": "string",
              "name": "role",
              "type": "string"
            },
            {
              "internalType": "string",
              "name": "email",
              "type": "string"
            },
            {
              "internalType": "string",
              "name": "firstname",
              "type": "string"
            },
            {
              "internalType": "string",
              "name": "lastname",
              "type": "string"
            },
            {
              "internalType": "string[]",
              "name": "accessors",
              "type": "string[]"
            }
          ],
          "internalType": "struct User[]",
          "name": "",
          "type": "tuple[]"
        }
      ],
      "stateMutability": "view",
      "type": "function"
    },
    {
      "inputs": [
        {
          "internalType": "string",
          "name": "userId",
          "type": "string"
        }
      ],
      "name": "getUser",
      "outputs": [
        {
          "components": [
            {
              "internalType": "string",
              "name": "Id",
              "type": "string"
            },
            {
              "internalType": "bool",
              "name": "verified",
              "type": "bool"
            },
            {
              "internalType": "string",
              "name": "role",
              "type": "string"
            },
            {
              "internalType": "string",
              "name": "email",
              "type": "string"
            },
            {
              "internalType": "string",
              "name": "firstname",
              "type": "string"
            },
            {
              "internalType": "string",
              "name": "lastname",
              "type": "string"
            },
            {
              "internalType": "string[]",
              "name": "accessors",
              "type": "string[]"
            }
          ],
          "internalType": "struct User",
          "name": "",
          "type": "tuple"
        }
      ],
      "stateMutability": "view",
      "type": "function"
    },
    {
      "inputs": [
        {
          "internalType": "string",
          "name": "userId",
          "type": "string"
        }
      ],
      "name": "getUserAccessors",
      "outputs": [
        {
          "internalType": "string[]",
          "name": "",
          "type": "string[]"
        }
      ],
      "stateMutability": "view",
      "type": "function"
    },
    {
      "inputs": [
        {
          "internalType": "string",
          "name": "userAddr",
          "type": "string"
        },
        {
          "internalType": "string",
          "name": "requestor",
          "type": "string"
        }
      ],
      "name": "getUserRecords",
      "outputs": [
        {
          "components": [
            {
              "internalType": "string",
              "name": "owner",
              "type": "string"
            },
            {
              "internalType": "string",
              "name": "recordId",
              "type": "string"
            },
            {
              "internalType": "string",
              "name": "patientId",
              "type": "string"
            },
            {
              "internalType": "string",
              "name": "phamacistId",
              "type": "string"
            },
            {
              "internalType": "string",
              "name": "doctorId",
              "type": "string"
            },
            {
              "internalType": "uint256",
              "name": "quantityPrescribed",
              "type": "uint256"
            },
            {
              "internalType": "string",
              "name": "drugDescription",
              "type": "string"
            },
            {
              "internalType": "uint256",
              "name": "prescibedDate",
              "type": "uint256"
            },
            {
              "internalType": "uint256",
              "name": "collectionDate",
              "type": "uint256"
            }
          ],
          "internalType": "struct Prescription[]",
          "name": "",
          "type": "tuple[]"
        }
      ],
      "stateMutability": "view",
      "type": "function"
    },
    {
      "inputs": [
        {
          "internalType": "string[]",
          "name": "arr",
          "type": "string[]"
        },
        {
          "internalType": "string",
          "name": "searchFor",
          "type": "string"
        }
      ],
      "name": "indexOf",
      "outputs": [
        {
          "internalType": "uint256",
          "name": "",
          "type": "uint256"
        }
      ],
      "stateMutability": "pure",
      "type": "function"
    },
    {
      "inputs": [
        {
          "internalType": "string",
          "name": "userId",
          "type": "string"
        },
        {
          "internalType": "string",
          "name": "accessor",
          "type": "string"
        }
      ],
      "name": "removeAccessor",
      "outputs": [],
      "stateMutability": "nonpayable",
      "type": "function"
    },
    {
      "inputs": [
        {
          "internalType": "string",
          "name": "userId",
          "type": "string"
        }
      ],
      "name": "removeUser",
      "outputs": [],
      "stateMutability": "nonpayable",
      "type": "function"
    },
    {
      "inputs": [
        {
          "internalType": "string",
          "name": "",
          "type": "string"
        }
      ],
      "name": "userIdMappings",
      "outputs": [
        {
          "internalType": "string",
          "name": "Id",
          "type": "string"
        },
        {
          "internalType": "bool",
          "name": "verified",
          "type": "bool"
        },
        {
          "internalType": "string",
          "name": "role",
          "type": "string"
        },
        {
          "internalType": "string",
          "name": "email",
          "type": "string"
        },
        {
          "internalType": "string",
          "name": "firstname",
          "type": "string"
        },
        {
          "internalType": "string",
          "name": "lastname",
          "type": "string"
        }
      ],
      "stateMutability": "view",
      "type": "function"
    }
  ],
  "bytecode": "0x608060405234801561001057600080fd5b5061305b806100206000396000f3fe608060405234801561001057600080fd5b50600436106100cf5760003560e01c806365c06f701161008c578063b23374e611610066578063b23374e614610239578063e2842d7914610255578063e806419614610273578063f1a11617146102a3576100cf565b806365c06f70146101d157806369d85dce146101ed57806385503dd11461021d576100cf565b806304d6faa0146100d457806306ea2dfb146100f05780631b4e5b94146101205780632ccbe3031461015057806331feb67114610185578063600cee78146101b5575b600080fd5b6100ee60048036038101906100e99190612407565b6102bf565b005b61010a6004803603810190610105919061226b565b610432565b6040516101179190612b03565b60405180910390f35b61013a600480360381019061013591906121ff565b610529565b6040516101479190612c6c565b60405180910390f35b61016a6004803603810190610165919061226b565b6105b8565b60405161017c96959493929190612ba6565b60405180910390f35b61019f600480360381019061019a919061226b565b6108bf565b6040516101ac9190612c4a565b60405180910390f35b6101cf60048036038101906101ca919061226b565b610cc5565b005b6101eb60048036038101906101e69190612318565b610d5d565b005b610207600480360381019061020291906122ac565b610fde565b6040516102149190612b25565b60405180910390f35b610237600480360381019061023291906122ac565b611636565b005b610253600480360381019061024e91906122ac565b611692565b005b61025d6117c6565b60405161026a9190612b47565b60405180910390f35b61028d6004803603810190610288919061226b565b611bf3565b60405161029a9190612b03565b60405180910390f35b6102bd60048036038101906102b8919061226b565b611cea565b005b6102c7611ebf565b848160000181905250858160200181905250848160400181905250838160800181905250818160c00181905250828160a0018181525050428160e001818152505042816101000181815250506002856040516103239190612aec565b90815260200160405180910390208190806001815401808255809150506001900390600052602060002090600902016000909190919091506000820151816000019080519060200190610377929190611f0b565b506020820151816001019080519060200190610394929190611f0b565b5060408201518160020190805190602001906103b1929190611f0b565b5060608201518160030190805190602001906103ce929190611f0b565b5060808201518160040190805190602001906103eb929190611f0b565b5060a0820151816005015560c0820151816006019080519060200190610412929190611f0b565b5060e0820151816007015561010082015181600801555050505050505050565b60606003826040516104449190612aec565b9081526020016040518091039020805480602002602001604051908101604052809291908181526020016000905b8282101561051e57838290600052602060002001805461049190612e75565b80601f01602080910402602001604051908101604052809291908181526020018280546104bd90612e75565b801561050a5780601f106104df5761010080835404028352916020019161050a565b820191906000526020600020905b8154815290600101906020018083116104ed57829003601f168201915b505050505081526020019060010190610472565b505050509050919050565b600080600090505b83518110156105ac57828051906020012084828151811061057b577f4e487b7100000000000000000000000000000000000000000000000000000000600052603260045260246000fd5b602002602001015180519060200120141561059957809150506105b2565b80806105a490612ed8565b915050610531565b50600090505b92915050565b6001818051602081018201805184825260208301602085012081835280955050505050506000915090508060000180546105f190612e75565b80601f016020809104026020016040519081016040528092919081815260200182805461061d90612e75565b801561066a5780601f1061063f5761010080835404028352916020019161066a565b820191906000526020600020905b81548152906001019060200180831161064d57829003601f168201915b5050505050908060010160009054906101000a900460ff169080600201805461069290612e75565b80601f01602080910402602001604051908101604052809291908181526020018280546106be90612e75565b801561070b5780601f106106e05761010080835404028352916020019161070b565b820191906000526020600020905b8154815290600101906020018083116106ee57829003601f168201915b50505050509080600301805461072090612e75565b80601f016020809104026020016040519081016040528092919081815260200182805461074c90612e75565b80156107995780601f1061076e57610100808354040283529160200191610799565b820191906000526020600020905b81548152906001019060200180831161077c57829003601f168201915b5050505050908060040180546107ae90612e75565b80601f01602080910402602001604051908101604052809291908181526020018280546107da90612e75565b80156108275780601f106107fc57610100808354040283529160200191610827565b820191906000526020600020905b81548152906001019060200180831161080a57829003601f168201915b50505050509080600501805461083c90612e75565b80601f016020809104026020016040519081016040528092919081815260200182805461086890612e75565b80156108b55780601f1061088a576101008083540402835291602001916108b5565b820191906000526020600020905b81548152906001019060200180831161089857829003601f168201915b5050505050905086565b6108c7611f91565b6001826040516108d79190612aec565b90815260200160405180910390206040518060e001604052908160008201805461090090612e75565b80601f016020809104026020016040519081016040528092919081815260200182805461092c90612e75565b80156109795780601f1061094e57610100808354040283529160200191610979565b820191906000526020600020905b81548152906001019060200180831161095c57829003601f168201915b505050505081526020016001820160009054906101000a900460ff161515151581526020016002820180546109ad90612e75565b80601f01602080910402602001604051908101604052809291908181526020018280546109d990612e75565b8015610a265780601f106109fb57610100808354040283529160200191610a26565b820191906000526020600020905b815481529060010190602001808311610a0957829003601f168201915b50505050508152602001600382018054610a3f90612e75565b80601f0160208091040260200160405190810160405280929190818152602001828054610a6b90612e75565b8015610ab85780601f10610a8d57610100808354040283529160200191610ab8565b820191906000526020600020905b815481529060010190602001808311610a9b57829003601f168201915b50505050508152602001600482018054610ad190612e75565b80601f0160208091040260200160405190810160405280929190818152602001828054610afd90612e75565b8015610b4a5780601f10610b1f57610100808354040283529160200191610b4a565b820191906000526020600020905b815481529060010190602001808311610b2d57829003601f168201915b50505050508152602001600582018054610b6390612e75565b80601f0160208091040260200160405190810160405280929190818152602001828054610b8f90612e75565b8015610bdc5780601f10610bb157610100808354040283529160200191610bdc565b820191906000526020600020905b815481529060010190602001808311610bbf57829003601f168201915b5050505050815260200160068201805480602002602001604051908101604052809291908181526020016000905b82821015610cb6578382906000526020600020018054610c2990612e75565b80601f0160208091040260200160405190810160405280929190818152602001828054610c5590612e75565b8015610ca25780601f10610c7757610100808354040283529160200191610ca2565b820191906000526020600020905b815481529060010190602001808311610c8557829003601f168201915b505050505081526020019060010190610c0a565b50505050815250509050919050565b600181604051610cd59190612aec565b908152602001604051809103902060008082016000610cf49190611fd0565b6001820160006101000a81549060ff0219169055600282016000610d189190611fd0565b600382016000610d289190611fd0565b600482016000610d389190611fd0565b600582016000610d489190611fd0565b600682016000610d589190612010565b505050565b610d65611f91565b858160000181905250848160400181905250838160600181905250828160800181905250818160a0018190525080600187604051610da39190612aec565b90815260200160405180910390206000820151816000019080519060200190610dcd929190611f0b565b5060208201518160010160006101000a81548160ff0219169083151502179055506040820151816002019080519060200190610e0a929190611f0b565b506060820151816003019080519060200190610e27929190611f0b565b506080820151816004019080519060200190610e44929190611f0b565b5060a0820151816005019080519060200190610e61929190611f0b565b5060c0820151816006019080519060200190610e7e929190612031565b50905050600386604051610e929190612aec565b908152602001604051809103902086908060018154018082558091505060019003906000526020600020016000909190919091509080519060200190610ed9929190611f0b565b5060048190806001815401808255809150506001900390600052602060002090600702016000909190919091506000820151816000019080519060200190610f22929190611f0b565b5060208201518160010160006101000a81548160ff0219169083151502179055506040820151816002019080519060200190610f5f929190611f0b565b506060820151816003019080519060200190610f7c929190611f0b565b506080820151816004019080519060200190610f99929190611f0b565b5060a0820151816005019080519060200190610fb6929190611f0b565b5060c0820151816006019080519060200190610fd3929190612031565b505050505050505050565b606082826000600183604051610ff49190612aec565b9081526020016040518091039020600601805480602002602001604051908101604052809291908181526020016000905b828210156110d157838290600052602060002001805461104490612e75565b80601f016020809104026020016040519081016040528092919081815260200182805461107090612e75565b80156110bd5780601f10611092576101008083540402835291602001916110bd565b820191906000526020600020905b8154815290600101906020018083116110a057829003601f168201915b505050505081526020019060010190611025565b5050505090506111156040518060400160405280600b81526020017f496e206d6f646966696572000000000000000000000000000000000000000000815250611d64565b600080600090505b60038560405161112d9190612aec565b9081526020016040518091039020805490508110156111e157838051906020012060038660405161115e9190612aec565b908152602001604051809103902082815481106111a4577f4e487b7100000000000000000000000000000000000000000000000000000000600052603260045260246000fd5b906000526020600020016040516111bb9190612ad5565b604051809103902014156111ce57600191505b80806111d990612ed8565b91505061111d565b506111eb81611dfd565b8061122b576040517f08c379a000000000000000000000000000000000000000000000000000000000815260040161122290612c2a565b60405180910390fd5b60028760405161123b9190612aec565b9081526020016040518091039020805480602002602001604051908101604052809291908181526020016000905b8282101561162657838290600052602060002090600902016040518061012001604052908160008201805461129d90612e75565b80601f01602080910402602001604051908101604052809291908181526020018280546112c990612e75565b80156113165780601f106112eb57610100808354040283529160200191611316565b820191906000526020600020905b8154815290600101906020018083116112f957829003601f168201915b5050505050815260200160018201805461132f90612e75565b80601f016020809104026020016040519081016040528092919081815260200182805461135b90612e75565b80156113a85780601f1061137d576101008083540402835291602001916113a8565b820191906000526020600020905b81548152906001019060200180831161138b57829003601f168201915b505050505081526020016002820180546113c190612e75565b80601f01602080910402602001604051908101604052809291908181526020018280546113ed90612e75565b801561143a5780601f1061140f5761010080835404028352916020019161143a565b820191906000526020600020905b81548152906001019060200180831161141d57829003601f168201915b5050505050815260200160038201805461145390612e75565b80601f016020809104026020016040519081016040528092919081815260200182805461147f90612e75565b80156114cc5780601f106114a1576101008083540402835291602001916114cc565b820191906000526020600020905b8154815290600101906020018083116114af57829003601f168201915b505050505081526020016004820180546114e590612e75565b80601f016020809104026020016040519081016040528092919081815260200182805461151190612e75565b801561155e5780601f106115335761010080835404028352916020019161155e565b820191906000526020600020905b81548152906001019060200180831161154157829003601f168201915b505050505081526020016005820154815260200160068201805461158190612e75565b80601f01602080910402602001604051908101604052809291908181526020018280546115ad90612e75565b80156115fa5780601f106115cf576101008083540402835291602001916115fa565b820191906000526020600020905b8154815290600101906020018083116115dd57829003601f168201915b505050505081526020016007820154815260200160088201548152505081526020019060010190611269565b5050505094505050505092915050565b6003826040516116469190612aec565b90815260200160405180910390208190806001815401808255809150506001900390600052602060002001600090919091909150908051906020019061168d929190611f0b565b505050565b60005b6003836040516116a59190612aec565b9081526020016040518091039020805490508110156117c15781805190602001206003846040516116d69190612aec565b9081526020016040518091039020828154811061171c577f4e487b7100000000000000000000000000000000000000000000000000000000600052603260045260246000fd5b906000526020600020016040516117339190612ad5565b604051809103902014156117ae576003836040516117519190612aec565b90815260200160405180910390208181548110611797577f4e487b7100000000000000000000000000000000000000000000000000000000600052603260045260246000fd5b9060005260206000200160006117ad9190611fd0565b5b80806117b990612ed8565b915050611695565b505050565b60606004805480602002602001604051908101604052809291908181526020016000905b82821015611bea57838290600052602060002090600702016040518060e001604052908160008201805461181d90612e75565b80601f016020809104026020016040519081016040528092919081815260200182805461184990612e75565b80156118965780601f1061186b57610100808354040283529160200191611896565b820191906000526020600020905b81548152906001019060200180831161187957829003601f168201915b505050505081526020016001820160009054906101000a900460ff161515151581526020016002820180546118ca90612e75565b80601f01602080910402602001604051908101604052809291908181526020018280546118f690612e75565b80156119435780601f1061191857610100808354040283529160200191611943565b820191906000526020600020905b81548152906001019060200180831161192657829003601f168201915b5050505050815260200160038201805461195c90612e75565b80601f016020809104026020016040519081016040528092919081815260200182805461198890612e75565b80156119d55780601f106119aa576101008083540402835291602001916119d5565b820191906000526020600020905b8154815290600101906020018083116119b857829003601f168201915b505050505081526020016004820180546119ee90612e75565b80601f0160208091040260200160405190810160405280929190818152602001828054611a1a90612e75565b8015611a675780601f10611a3c57610100808354040283529160200191611a67565b820191906000526020600020905b815481529060010190602001808311611a4a57829003601f168201915b50505050508152602001600582018054611a8090612e75565b80601f0160208091040260200160405190810160405280929190818152602001828054611aac90612e75565b8015611af95780601f10611ace57610100808354040283529160200191611af9565b820191906000526020600020905b815481529060010190602001808311611adc57829003601f168201915b5050505050815260200160068201805480602002602001604051908101604052809291908181526020016000905b82821015611bd3578382906000526020600020018054611b4690612e75565b80601f0160208091040260200160405190810160405280929190818152602001828054611b7290612e75565b8015611bbf5780601f10611b9457610100808354040283529160200191611bbf565b820191906000526020600020905b815481529060010190602001808311611ba257829003601f168201915b505050505081526020019060010190611b27565b5050505081525050815260200190600101906117ea565b50505050905090565b6060600382604051611c059190612aec565b9081526020016040518091039020805480602002602001604051908101604052809291908181526020016000905b82821015611cdf578382906000526020600020018054611c5290612e75565b80601f0160208091040260200160405190810160405280929190818152602001828054611c7e90612e75565b8015611ccb5780601f10611ca057610100808354040283529160200191611ccb565b820191906000526020600020905b815481529060010190602001808311611cae57829003601f168201915b505050505081526020019060010190611c33565b505050509050919050565b60018082604051611cfb9190612aec565b908152602001604051809103902060010160006101000a81548160ff021916908315150217905550611d616040518060400160405280601a81526020017f66696e6973686564206368616e67696e67207468652075736572000000000000815250611d64565b50565b611dfa81604051602401611d789190612b84565b6040516020818303038152906040527f41304fac000000000000000000000000000000000000000000000000000000007bffffffffffffffffffffffffffffffffffffffffffffffffffffffff19166020820180517bffffffffffffffffffffffffffffffffffffffffffffffffffffffff8381831617835250505050611e96565b50565b611e9381604051602401611e119190612b69565b6040516020818303038152906040527f32458eed000000000000000000000000000000000000000000000000000000007bffffffffffffffffffffffffffffffffffffffffffffffffffffffff19166020820180517bffffffffffffffffffffffffffffffffffffffffffffffffffffffff8381831617835250505050611e96565b50565b60008151905060006a636f6e736f6c652e6c6f679050602083016000808483855afa5050505050565b6040518061012001604052806060815260200160608152602001606081526020016060815260200160608152602001600081526020016060815260200160008152602001600081525090565b828054611f1790612e75565b90600052602060002090601f016020900481019282611f395760008555611f80565b82601f10611f5257805160ff1916838001178555611f80565b82800160010185558215611f80579182015b82811115611f7f578251825591602001919060010190611f64565b5b509050611f8d9190612091565b5090565b6040518060e001604052806060815260200160001515815260200160608152602001606081526020016060815260200160608152602001606081525090565b508054611fdc90612e75565b6000825580601f10611fee575061200d565b601f01602090049060005260206000209081019061200c9190612091565b5b50565b508054600082559060005260206000209081019061202e91906120ae565b50565b828054828255906000526020600020908101928215612080579160200282015b8281111561207f57825182908051906020019061206f929190611f0b565b5091602001919060010190612051565b5b50905061208d91906120ae565b5090565b5b808211156120aa576000816000905550600101612092565b5090565b5b808211156120ce57600081816120c59190611fd0565b506001016120af565b5090565b60006120e56120e084612cac565b612c87565b9050808382526020820190508285602086028201111561210457600080fd5b60005b8581101561214e57813567ffffffffffffffff81111561212657600080fd5b80860161213389826121c0565b85526020850194506020840193505050600181019050612107565b5050509392505050565b600061216b61216684612cd8565b612c87565b90508281526020810184848401111561218357600080fd5b61218e848285612e33565b509392505050565b600082601f8301126121a757600080fd5b81356121b78482602086016120d2565b91505092915050565b600082601f8301126121d157600080fd5b81356121e1848260208601612158565b91505092915050565b6000813590506121f98161300e565b92915050565b6000806040838503121561221257600080fd5b600083013567ffffffffffffffff81111561222c57600080fd5b61223885828601612196565b925050602083013567ffffffffffffffff81111561225557600080fd5b612261858286016121c0565b9150509250929050565b60006020828403121561227d57600080fd5b600082013567ffffffffffffffff81111561229757600080fd5b6122a3848285016121c0565b91505092915050565b600080604083850312156122bf57600080fd5b600083013567ffffffffffffffff8111156122d957600080fd5b6122e5858286016121c0565b925050602083013567ffffffffffffffff81111561230257600080fd5b61230e858286016121c0565b9150509250929050565b600080600080600060a0868803121561233057600080fd5b600086013567ffffffffffffffff81111561234a57600080fd5b612356888289016121c0565b955050602086013567ffffffffffffffff81111561237357600080fd5b61237f888289016121c0565b945050604086013567ffffffffffffffff81111561239c57600080fd5b6123a8888289016121c0565b935050606086013567ffffffffffffffff8111156123c557600080fd5b6123d1888289016121c0565b925050608086013567ffffffffffffffff8111156123ee57600080fd5b6123fa888289016121c0565b9150509295509295909350565b600080600080600060a0868803121561241f57600080fd5b600086013567ffffffffffffffff81111561243957600080fd5b612445888289016121c0565b955050602086013567ffffffffffffffff81111561246257600080fd5b61246e888289016121c0565b945050604086013567ffffffffffffffff81111561248b57600080fd5b612497888289016121c0565b93505060606124a8888289016121ea565b925050608086013567ffffffffffffffff8111156124c557600080fd5b6124d1888289016121c0565b9150509295509295909350565b60006124ea838361278b565b905092915050565b60006124fe8383612851565b905092915050565b60006125128383612939565b905092915050565b600061252582612d4e565b61252f8185612da1565b93508360208202850161254185612d09565b8060005b8581101561257d578484038952815161255e85826124de565b945061256983612d7a565b925060208a01995050600181019050612545565b50829750879550505050505092915050565b600061259a82612d4e565b6125a48185612db2565b9350836020820285016125b685612d09565b8060005b858110156125f257848403895281516125d385826124de565b94506125de83612d7a565b925060208a019950506001810190506125ba565b50829750879550505050505092915050565b600061260f82612d59565b6126198185612dc3565b93508360208202850161262b85612d19565b8060005b85811015612667578484038952815161264885826124f2565b945061265383612d87565b925060208a0199505060018101905061262f565b50829750879550505050505092915050565b600061268482612d64565b61268e8185612dd4565b9350836020820285016126a085612d29565b8060005b858110156126dc57848403895281516126bd8582612506565b94506126c883612d94565b925060208a019950506001810190506126a4565b50829750879550505050505092915050565b6126f781612e1d565b82525050565b61270681612e1d565b82525050565b6000815461271981612e75565b6127238186612de5565b9450600182166000811461273e576001811461274f57612782565b60ff19831686528186019350612782565b61275885612d39565b60005b8381101561277a5781548189015260018201915060208101905061275b565b838801955050505b50505092915050565b600061279682612d6f565b6127a08185612df0565b93506127b0818560208601612e42565b6127b981612fae565b840191505092915050565b60006127cf82612d6f565b6127d98185612e01565b93506127e9818560208601612e42565b6127f281612fae565b840191505092915050565b600061280882612d6f565b6128128185612e12565b9350612822818560208601612e42565b80840191505092915050565b600061283b602683612e01565b915061284682612fbf565b604082019050919050565b600061012083016000830151848203600086015261286f828261278b565b91505060208301518482036020860152612889828261278b565b915050604083015184820360408601526128a3828261278b565b915050606083015184820360608601526128bd828261278b565b915050608083015184820360808601526128d7828261278b565b91505060a08301516128ec60a0860182612ab7565b5060c083015184820360c0860152612904828261278b565b91505060e083015161291960e0860182612ab7565b5061010083015161292e610100860182612ab7565b508091505092915050565b600060e0830160008301518482036000860152612956828261278b565b915050602083015161296b60208601826126ee565b5060408301518482036040860152612983828261278b565b9150506060830151848203606086015261299d828261278b565b915050608083015184820360808601526129b7828261278b565b91505060a083015184820360a08601526129d1828261278b565b91505060c083015184820360c08601526129eb828261251a565b9150508091505092915050565b600060e0830160008301518482036000860152612a15828261278b565b9150506020830151612a2a60208601826126ee565b5060408301518482036040860152612a42828261278b565b91505060608301518482036060860152612a5c828261278b565b91505060808301518482036080860152612a76828261278b565b91505060a083015184820360a0860152612a90828261278b565b91505060c083015184820360c0860152612aaa828261251a565b9150508091505092915050565b612ac081612e29565b82525050565b612acf81612e29565b82525050565b6000612ae1828461270c565b915081905092915050565b6000612af882846127fd565b915081905092915050565b60006020820190508181036000830152612b1d818461258f565b905092915050565b60006020820190508181036000830152612b3f8184612604565b905092915050565b60006020820190508181036000830152612b618184612679565b905092915050565b6000602082019050612b7e60008301846126fd565b92915050565b60006020820190508181036000830152612b9e81846127c4565b905092915050565b600060c0820190508181036000830152612bc081896127c4565b9050612bcf60208301886126fd565b8181036040830152612be181876127c4565b90508181036060830152612bf581866127c4565b90508181036080830152612c0981856127c4565b905081810360a0830152612c1d81846127c4565b9050979650505050505050565b60006020820190508181036000830152612c438161282e565b9050919050565b60006020820190508181036000830152612c6481846129f8565b905092915050565b6000602082019050612c816000830184612ac6565b92915050565b6000612c91612ca2565b9050612c9d8282612ea7565b919050565b6000604051905090565b600067ffffffffffffffff821115612cc757612cc6612f7f565b5b602082029050602081019050919050565b600067ffffffffffffffff821115612cf357612cf2612f7f565b5b612cfc82612fae565b9050602081019050919050565b6000819050602082019050919050565b6000819050602082019050919050565b6000819050602082019050919050565b60008190508160005260206000209050919050565b600081519050919050565b600081519050919050565b600081519050919050565b600081519050919050565b6000602082019050919050565b6000602082019050919050565b6000602082019050919050565b600082825260208201905092915050565b600082825260208201905092915050565b600082825260208201905092915050565b600082825260208201905092915050565b600081905092915050565b600082825260208201905092915050565b600082825260208201905092915050565b600081905092915050565b60008115159050919050565b6000819050919050565b82818337600083830152505050565b60005b83811015612e60578082015181840152602081019050612e45565b83811115612e6f576000848401525b50505050565b60006002820490506001821680612e8d57607f821691505b60208210811415612ea157612ea0612f50565b5b50919050565b612eb082612fae565b810181811067ffffffffffffffff82111715612ecf57612ece612f7f565b5b80604052505050565b6000612ee382612e29565b91507fffffffffffffffffffffffffffffffffffffffffffffffffffffffffffffffff821415612f1657612f15612f21565b5b600182019050919050565b7f4e487b7100000000000000000000000000000000000000000000000000000000600052601160045260246000fd5b7f4e487b7100000000000000000000000000000000000000000000000000000000600052602260045260246000fd5b7f4e487b7100000000000000000000000000000000000000000000000000000000600052604160045260246000fd5b6000601f19601f8301169050919050565b7f4e6f7420616c6c6f77656420746f20766965772074686973207573657273207260008201527f65636f7264730000000000000000000000000000000000000000000000000000602082015250565b61301781612e29565b811461302257600080fd5b5056fea2646970667358221220e8637761eba7d88e80d289bd26dc1339cce68ab2e8e8c5d121da4f75860b696564736f6c63430008040033",
  "linkReferences": {},
  "deployedLinkReferences": {}
}